{
  "contractName": "SupplyChain",
  "abi": [
    {
      "inputs": [],
      "payable": true,
      "stateMutability": "payable",
      "type": "constructor"
    },
    {
      "anonymous": false,
      "inputs": [
        {
          "indexed": false,
          "internalType": "uint256",
          "name": "uid",
          "type": "uint256"
        }
      ],
      "name": "Manufactured",
      "type": "event"
    },
    {
      "anonymous": false,
      "inputs": [
        {
          "indexed": true,
          "internalType": "address",
          "name": "_account",
          "type": "address"
        }
      ],
      "name": "ManufacturerAdded",
      "type": "event"
    },
    {
      "anonymous": false,
      "inputs": [
        {
          "indexed": false,
          "internalType": "uint256",
          "name": "uid",
          "type": "uint256"
        }
      ],
      "name": "PurchasedByCustomer",
      "type": "event"
    },
    {
      "anonymous": false,
      "inputs": [
        {
          "indexed": false,
          "internalType": "uint256",
          "name": "uid",
          "type": "uint256"
        }
      ],
      "name": "PurchasedByThirdParty",
      "type": "event"
    },
    {
      "anonymous": false,
      "inputs": [
        {
          "indexed": false,
          "internalType": "uint256",
          "name": "uid",
          "type": "uint256"
        }
      ],
      "name": "ReceivedByCustomer",
      "type": "event"
    },
    {
      "anonymous": false,
      "inputs": [
        {
          "indexed": false,
          "internalType": "uint256",
          "name": "uid",
          "type": "uint256"
        }
      ],
      "name": "ReceivedByDeliveryHub",
      "type": "event"
    },
    {
      "anonymous": false,
      "inputs": [
        {
          "indexed": false,
          "internalType": "uint256",
          "name": "uid",
          "type": "uint256"
        }
      ],
      "name": "ReceivedByThirdParty",
      "type": "event"
    },
    {
      "anonymous": false,
      "inputs": [
        {
          "indexed": false,
          "internalType": "uint256",
          "name": "uid",
          "type": "uint256"
        }
      ],
      "name": "ShippedByDeliveryHub",
      "type": "event"
    },
    {
      "anonymous": false,
      "inputs": [
        {
          "indexed": false,
          "internalType": "uint256",
          "name": "uid",
          "type": "uint256"
        }
      ],
      "name": "ShippedByManufacturer",
      "type": "event"
    },
    {
      "anonymous": false,
      "inputs": [
        {
          "indexed": false,
          "internalType": "uint256",
          "name": "uid",
          "type": "uint256"
        }
      ],
      "name": "ShippedByThirdParty",
      "type": "event"
    },
    {
      "constant": true,
      "inputs": [],
      "name": "uid",
      "outputs": [
        {
          "internalType": "uint256",
          "name": "",
          "type": "uint256"
        }
      ],
      "payable": false,
      "stateMutability": "view",
      "type": "function"
    },
    {
      "constant": true,
      "inputs": [
        {
          "internalType": "address",
          "name": "_account",
          "type": "address"
        }
      ],
      "name": "hasManufacturerRole",
      "outputs": [
        {
          "internalType": "bool",
          "name": "",
          "type": "bool"
        }
      ],
      "payable": false,
      "stateMutability": "view",
      "type": "function"
    },
    {
      "constant": false,
      "inputs": [
        {
          "internalType": "address",
          "name": "_account",
          "type": "address"
        }
      ],
      "name": "addManufacturerRole",
      "outputs": [],
      "payable": false,
      "stateMutability": "nonpayable",
      "type": "function"
    },
    {
      "constant": true,
      "inputs": [
        {
          "internalType": "address",
          "name": "_account",
          "type": "address"
        }
      ],
      "name": "hasThirdPartyRole",
      "outputs": [
        {
          "internalType": "bool",
          "name": "",
          "type": "bool"
        }
      ],
      "payable": false,
      "stateMutability": "view",
      "type": "function"
    },
    {
      "constant": false,
      "inputs": [
        {
          "internalType": "address",
          "name": "_account",
          "type": "address"
        }
      ],
      "name": "addThirdPartyRole",
      "outputs": [],
      "payable": false,
      "stateMutability": "nonpayable",
      "type": "function"
    },
    {
      "constant": true,
      "inputs": [
        {
          "internalType": "address",
          "name": "_account",
          "type": "address"
        }
      ],
      "name": "hasDeliveryHubRole",
      "outputs": [
        {
          "internalType": "bool",
          "name": "",
          "type": "bool"
        }
      ],
      "payable": false,
      "stateMutability": "view",
      "type": "function"
    },
    {
      "constant": false,
      "inputs": [
        {
          "internalType": "address",
          "name": "_account",
          "type": "address"
        }
      ],
      "name": "addDeliveryHubRole",
      "outputs": [],
      "payable": false,
      "stateMutability": "nonpayable",
      "type": "function"
    },
    {
      "constant": true,
      "inputs": [
        {
          "internalType": "address",
          "name": "_account",
          "type": "address"
        }
      ],
      "name": "hasCustomerRole",
      "outputs": [
        {
          "internalType": "bool",
          "name": "",
          "type": "bool"
        }
      ],
      "payable": false,
      "stateMutability": "view",
      "type": "function"
    },
    {
      "constant": false,
      "inputs": [
        {
          "internalType": "address",
          "name": "_account",
          "type": "address"
        }
      ],
      "name": "addCustomerRole",
      "outputs": [],
      "payable": false,
      "stateMutability": "nonpayable",
      "type": "function"
    },
    {
      "constant": false,
      "inputs": [
        {
          "internalType": "string",
          "name": "manufacturerName",
          "type": "string"
        },
        {
          "internalType": "string",
          "name": "manufacturerDetails",
          "type": "string"
        },
        {
          "internalType": "string",
          "name": "manufacturerLongitude",
          "type": "string"
        },
        {
          "internalType": "string",
          "name": "manufacturerLatitude",
          "type": "string"
        },
        {
          "internalType": "string",
          "name": "productName",
          "type": "string"
        },
        {
          "internalType": "uint256",
          "name": "productCode",
          "type": "uint256"
        },
        {
          "internalType": "uint256",
          "name": "productPrice",
          "type": "uint256"
        },
        {
          "internalType": "string",
          "name": "productCategory",
          "type": "string"
        }
      ],
      "name": "manufactureProduct",
      "outputs": [],
      "payable": false,
      "stateMutability": "nonpayable",
      "type": "function"
    },
    {
      "constant": false,
      "inputs": [
        {
          "internalType": "uint256",
          "name": "_uid",
          "type": "uint256"
        }
      ],
      "name": "purchaseByThirdParty",
      "outputs": [],
      "payable": false,
      "stateMutability": "nonpayable",
      "type": "function"
    },
    {
      "constant": false,
      "inputs": [
        {
          "internalType": "uint256",
          "name": "_uid",
          "type": "uint256"
        }
      ],
      "name": "shipToThirdParty",
      "outputs": [],
      "payable": false,
      "stateMutability": "nonpayable",
      "type": "function"
    },
    {
      "constant": false,
      "inputs": [
        {
          "internalType": "uint256",
          "name": "_uid",
          "type": "uint256"
        },
        {
          "internalType": "string",
          "name": "thirdPartyLongitude",
          "type": "string"
        },
        {
          "internalType": "string",
          "name": "thirdPartyLatitude",
          "type": "string"
        }
      ],
      "name": "receiveByThirdParty",
      "outputs": [],
      "payable": false,
      "stateMutability": "nonpayable",
      "type": "function"
    },
    {
      "constant": false,
      "inputs": [
        {
          "internalType": "uint256",
          "name": "_uid",
          "type": "uint256"
        }
      ],
      "name": "purchaseByCustomer",
      "outputs": [],
      "payable": true,
      "stateMutability": "payable",
      "type": "function"
    },
    {
      "constant": false,
      "inputs": [
        {
          "internalType": "uint256",
          "name": "_uid",
          "type": "uint256"
        }
      ],
      "name": "shipByThirdParty",
      "outputs": [],
      "payable": false,
      "stateMutability": "nonpayable",
      "type": "function"
    },
    {
      "constant": false,
      "inputs": [
        {
          "internalType": "uint256",
          "name": "_uid",
          "type": "uint256"
        },
        {
          "internalType": "string",
          "name": "deliveryHubLongitude",
          "type": "string"
        },
        {
          "internalType": "string",
          "name": "deliveryHubLatitude",
          "type": "string"
        }
      ],
      "name": "receiveByDeliveryHub",
      "outputs": [],
      "payable": false,
      "stateMutability": "nonpayable",
      "type": "function"
    },
    {
      "constant": false,
      "inputs": [
        {
          "internalType": "uint256",
          "name": "_uid",
          "type": "uint256"
        }
      ],
      "name": "shipByDeliveryHub",
      "outputs": [],
      "payable": false,
      "stateMutability": "nonpayable",
      "type": "function"
    },
    {
      "constant": false,
      "inputs": [
        {
          "internalType": "uint256",
          "name": "_uid",
          "type": "uint256"
        }
      ],
      "name": "receiveByCustomer",
      "outputs": [],
      "payable": false,
      "stateMutability": "nonpayable",
      "type": "function"
    },
    {
      "constant": true,
      "inputs": [
        {
          "internalType": "uint256",
          "name": "_uid",
          "type": "uint256"
        },
        {
          "internalType": "string",
          "name": "_type",
          "type": "string"
        },
        {
          "internalType": "uint256",
          "name": "i",
          "type": "uint256"
        }
      ],
      "name": "fetchProductPart1",
      "outputs": [
        {
          "internalType": "uint256",
          "name": "",
          "type": "uint256"
        },
        {
          "internalType": "uint256",
          "name": "",
          "type": "uint256"
        },
        {
          "internalType": "address",
          "name": "",
          "type": "address"
        },
        {
          "internalType": "address",
          "name": "",
          "type": "address"
        },
        {
          "internalType": "string",
          "name": "",
          "type": "string"
        },
        {
          "internalType": "string",
          "name": "",
          "type": "string"
        },
        {
          "internalType": "string",
          "name": "",
          "type": "string"
        },
        {
          "internalType": "string",
          "name": "",
          "type": "string"
        }
      ],
      "payable": false,
      "stateMutability": "view",
      "type": "function"
    },
    {
      "constant": true,
      "inputs": [
        {
          "internalType": "uint256",
          "name": "_uid",
          "type": "uint256"
        },
        {
          "internalType": "string",
          "name": "_type",
          "type": "string"
        },
        {
          "internalType": "uint256",
          "name": "i",
          "type": "uint256"
        }
      ],
      "name": "fetchProductPart2",
      "outputs": [
        {
          "internalType": "uint256",
          "name": "",
          "type": "uint256"
        },
        {
          "internalType": "string",
          "name": "",
          "type": "string"
        },
        {
          "internalType": "uint256",
          "name": "",
          "type": "uint256"
        },
        {
          "internalType": "uint256",
          "name": "",
          "type": "uint256"
        },
        {
          "internalType": "string",
          "name": "",
          "type": "string"
        },
        {
          "internalType": "enum Structure.State",
          "name": "",
          "type": "uint8"
        },
        {
          "internalType": "address",
          "name": "",
          "type": "address"
        },
        {
          "internalType": "string",
          "name": "",
          "type": "string"
        }
      ],
      "payable": false,
      "stateMutability": "view",
      "type": "function"
    },
    {
      "constant": true,
      "inputs": [
        {
          "internalType": "uint256",
          "name": "_uid",
          "type": "uint256"
        },
        {
          "internalType": "string",
          "name": "_type",
          "type": "string"
        },
        {
          "internalType": "uint256",
          "name": "i",
          "type": "uint256"
        }
      ],
      "name": "fetchProductPart3",
      "outputs": [
        {
          "internalType": "string",
          "name": "",
          "type": "string"
        },
        {
          "internalType": "address",
          "name": "",
          "type": "address"
        },
        {
          "internalType": "string",
          "name": "",
          "type": "string"
        },
        {
          "internalType": "string",
          "name": "",
          "type": "string"
        },
        {
          "internalType": "address",
          "name": "",
          "type": "address"
        },
        {
          "internalType": "string",
          "name": "",
          "type": "string"
        }
      ],
      "payable": false,
      "stateMutability": "view",
      "type": "function"
    },
    {
      "constant": true,
      "inputs": [],
      "name": "fetchProductCount",
      "outputs": [
        {
          "internalType": "uint256",
          "name": "",
          "type": "uint256"
        }
      ],
      "payable": false,
      "stateMutability": "view",
      "type": "function"
    },
    {
      "constant": true,
      "inputs": [
        {
          "internalType": "uint256",
          "name": "_uid",
          "type": "uint256"
        }
      ],
      "name": "fetchProductHistoryLength",
      "outputs": [
        {
          "internalType": "uint256",
          "name": "",
          "type": "uint256"
        }
      ],
      "payable": false,
      "stateMutability": "view",
      "type": "function"
    },
    {
      "constant": true,
      "inputs": [
        {
          "internalType": "uint256",
          "name": "_uid",
          "type": "uint256"
        }
      ],
      "name": "fetchProductState",
      "outputs": [
        {
          "internalType": "enum Structure.State",
          "name": "",
          "type": "uint8"
        }
      ],
      "payable": false,
      "stateMutability": "view",
      "type": "function"
    },
    {
      "constant": false,
      "inputs": [
        {
          "internalType": "string",
          "name": "tran",
          "type": "string"
        }
      ],
      "name": "setTransactionHashOnManufacture",
      "outputs": [],
      "payable": false,
      "stateMutability": "nonpayable",
      "type": "function"
    },
    {
      "constant": false,
      "inputs": [
        {
          "internalType": "uint256",
          "name": "_uid",
          "type": "uint256"
        },
        {
          "internalType": "string",
          "name": "tran",
          "type": "string"
        }
      ],
      "name": "setTransactionHash",
      "outputs": [],
      "payable": false,
      "stateMutability": "nonpayable",
      "type": "function"
    }
  ],
  "bytecode": "0x6080604052600280546001600160a01b0319163317905560018080556000556147c78061002d6000396000f3fe6080604052600436106101805760003560e01c8063786ea161116100d1578063d44bebcc1161008a578063ee707c1e11610064578063ee707c1e14611304578063f16791b31461132e578063f4121b6714611343578063f514ce361461137657610180565b8063d44bebcc146111d2578063e2f1fe1414611205578063e55128ea1461125357610180565b8063786ea16114610cb75780638290f85914610d6f5780638eee90ea14610da257806398c9588914610edf578063b843bdee14611175578063cd2885e01461119f57610180565b80635212e5101161013e5780636cf07e24116101185780636cf07e2414610a055780636f1fe8d714610a2f5780637217eb2e14610c7057806372df397e14610c8d57610180565b80635212e510146106fb5780636000ada11461072e578063658db4971461076157610180565b80623375b714610185578063024edf9a146104de5780630a036e25146105255780633334529e1461054f578063405ba7ef1461068c578063453dd4af146106c8575b600080fd5b34801561019157600080fd5b506104dc60048036036101008110156101a957600080fd5b810190602081018135600160201b8111156101c357600080fd5b8201836020820111156101d557600080fd5b803590602001918460018302840111600160201b831117156101f657600080fd5b91908080601f0160208091040260200160405190810160405280939291908181526020018383808284376000920191909152509295949360208101935035915050600160201b81111561024857600080fd5b82018360208201111561025a57600080fd5b803590602001918460018302840111600160201b8311171561027b57600080fd5b91908080601f0160208091040260200160405190810160405280939291908181526020018383808284376000920191909152509295949360208101935035915050600160201b8111156102cd57600080fd5b8201836020820111156102df57600080fd5b803590602001918460018302840111600160201b8311171561030057600080fd5b91908080601f0160208091040260200160405190810160405280939291908181526020018383808284376000920191909152509295949360208101935035915050600160201b81111561035257600080fd5b82018360208201111561036457600080fd5b803590602001918460018302840111600160201b8311171561038557600080fd5b91908080601f0160208091040260200160405190810160405280939291908181526020018383808284376000920191909152509295949360208101935035915050600160201b8111156103d757600080fd5b8201836020820111156103e957600080fd5b803590602001918460018302840111600160201b8311171561040a57600080fd5b91908080601f0160208091040260200160405190810160405280939291908181526020018383808284376000920191909152509295843595602086013595919450925060608101915060400135600160201b81111561046857600080fd5b82018360208201111561047a57600080fd5b803590602001918460018302840111600160201b8311171561049b57600080fd5b91908080601f01602080910402602001604051908101604052809392919081815260200183838082843760009201919091525092955061138b945050505050565b005b3480156104ea57600080fd5b506105116004803603602081101561050157600080fd5b50356001600160a01b0316611931565b604080519115158252519081900360200190f35b34801561053157600080fd5b506104dc6004803603602081101561054857600080fd5b503561196c565b34801561055b57600080fd5b506104dc6004803603606081101561057257600080fd5b81359190810190604081016020820135600160201b81111561059357600080fd5b8201836020820111156105a557600080fd5b803590602001918460018302840111600160201b831117156105c657600080fd5b91908080601f0160208091040260200160405190810160405280939291908181526020018383808284376000920191909152509295949360208101935035915050600160201b81111561061857600080fd5b82018360208201111561062a57600080fd5b803590602001918460018302840111600160201b8311171561064b57600080fd5b91908080601f016020809104026020016040519081016040528093929190818152602001838380828437600092019190915250929550611d04945050505050565b34801561069857600080fd5b506106b6600480360360208110156106af57600080fd5b5035612132565b60408051918252519081900360200190f35b3480156106d457600080fd5b506104dc600480360360208110156106eb57600080fd5b50356001600160a01b0316612144565b34801561070757600080fd5b506104dc6004803603602081101561071e57600080fd5b50356001600160a01b0316612194565b34801561073a57600080fd5b506105116004803603602081101561075157600080fd5b50356001600160a01b03166121e0565b34801561076d57600080fd5b5061081b6004803603606081101561078457600080fd5b81359190810190604081016020820135600160201b8111156107a557600080fd5b8201836020820111156107b757600080fd5b803590602001918460018302840111600160201b831117156107d857600080fd5b91908080601f0160208091040260200160405190810160405280939291908181526020018383808284376000920191909152509295505091359250612214915050565b60405180898152602001888152602001876001600160a01b03166001600160a01b03168152602001866001600160a01b03166001600160a01b0316815260200180602001806020018060200180602001858103855289818151815260200191508051906020019080838360005b838110156108a0578181015183820152602001610888565b50505050905090810190601f1680156108cd5780820380516001836020036101000a031916815260200191505b5085810384528851815288516020918201918a019080838360005b838110156109005781810151838201526020016108e8565b50505050905090810190601f16801561092d5780820380516001836020036101000a031916815260200191505b50858103835287518152875160209182019189019080838360005b83811015610960578181015183820152602001610948565b50505050905090810190601f16801561098d5780820380516001836020036101000a031916815260200191505b50858103825286518152865160209182019188019080838360005b838110156109c05781810151838201526020016109a8565b50505050905090810190601f1680156109ed5780820380516001836020036101000a031916815260200191505b509c5050505050505050505050505060405180910390f35b348015610a1157600080fd5b506104dc60048036036020811015610a2857600080fd5b50356125af565b348015610a3b57600080fd5b50610ae960048036036060811015610a5257600080fd5b81359190810190604081016020820135600160201b811115610a7357600080fd5b820183602082011115610a8557600080fd5b803590602001918460018302840111600160201b83111715610aa657600080fd5b91908080601f01602080910402602001604051908101604052809392919081815260200183838082843760009201919091525092955050913592506129a3915050565b604051808981526020018060200188815260200187815260200180602001866008811115610b1357fe5b60ff168152602001856001600160a01b03166001600160a01b031681526020018060200184810384528b818151815260200191508051906020019080838360005b83811015610b6c578181015183820152602001610b54565b50505050905090810190601f168015610b995780820380516001836020036101000a031916815260200191505b5084810383528851815288516020918201918a019080838360005b83811015610bcc578181015183820152602001610bb4565b50505050905090810190601f168015610bf95780820380516001836020036101000a031916815260200191505b50848103825285518152855160209182019187019080838360005b83811015610c2c578181015183820152602001610c14565b50505050905090810190601f168015610c595780820380516001836020036101000a031916815260200191505b509b50505050505050505050505060405180910390f35b6104dc60048036036020811015610c8657600080fd5b5035612c63565b348015610c9957600080fd5b506104dc60048036036020811015610cb057600080fd5b5035613070565b348015610cc357600080fd5b506104dc60048036036040811015610cda57600080fd5b81359190810190604081016020820135600160201b811115610cfb57600080fd5b820183602082011115610d0d57600080fd5b803590602001918460018302840111600160201b83111715610d2e57600080fd5b91908080601f016020809104026020016040519081016040528093929190818152602001838380828437600092019190915250929550613443945050505050565b348015610d7b57600080fd5b506104dc60048036036020811015610d9257600080fd5b50356001600160a01b031661348f565b348015610dae57600080fd5b506104dc60048036036060811015610dc557600080fd5b81359190810190604081016020820135600160201b811115610de657600080fd5b820183602082011115610df857600080fd5b803590602001918460018302840111600160201b83111715610e1957600080fd5b91908080601f0160208091040260200160405190810160405280939291908181526020018383808284376000920191909152509295949360208101935035915050600160201b811115610e6b57600080fd5b820183602082011115610e7d57600080fd5b803590602001918460018302840111600160201b83111715610e9e57600080fd5b91908080601f0160208091040260200160405190810160405280939291908181526020018383808284376000920191909152509295506134d9945050505050565b348015610eeb57600080fd5b50610f9960048036036060811015610f0257600080fd5b81359190810190604081016020820135600160201b811115610f2357600080fd5b820183602082011115610f3557600080fd5b803590602001918460018302840111600160201b83111715610f5657600080fd5b91908080601f01602080910402602001604051908101604052809392919081815260200183838082843760009201919091525092955050913592506138f1915050565b6040518080602001876001600160a01b03166001600160a01b031681526020018060200180602001866001600160a01b03166001600160a01b031681526020018060200185810385528b818151815260200191508051906020019080838360005b83811015611012578181015183820152602001610ffa565b50505050905090810190601f16801561103f5780820380516001836020036101000a031916815260200191505b5085810384528951815289516020918201918b019080838360005b8381101561107257818101518382015260200161105a565b50505050905090810190601f16801561109f5780820380516001836020036101000a031916815260200191505b5085810383528851815288516020918201918a019080838360005b838110156110d25781810151838201526020016110ba565b50505050905090810190601f1680156110ff5780820380516001836020036101000a031916815260200191505b50858103825286518152865160209182019188019080838360005b8381101561113257818101518382015260200161111a565b50505050905090810190601f16801561115f5780820380516001836020036101000a031916815260200191505b509a505050505050505050505060405180910390f35b34801561118157600080fd5b506104dc6004803603602081101561119857600080fd5b5035613c78565b3480156111ab57600080fd5b50610511600480360360208110156111c257600080fd5b50356001600160a01b0316614027565b3480156111de57600080fd5b50610511600480360360208110156111f557600080fd5b50356001600160a01b0316614060565b34801561121157600080fd5b5061122f6004803603602081101561122857600080fd5b503561409a565b6040518082600881111561123f57fe5b60ff16815260200191505060405180910390f35b34801561125f57600080fd5b506104dc6004803603602081101561127657600080fd5b810190602081018135600160201b81111561129057600080fd5b8201836020820111156112a257600080fd5b803590602001918460018302840111600160201b831117156112c357600080fd5b91908080601f0160208091040260200160405190810160405280939291908181526020018383808284376000920191909152509295506140b9945050505050565b34801561131057600080fd5b506104dc6004803603602081101561132757600080fd5b5035614106565b34801561133a57600080fd5b506106b66144c5565b34801561134f57600080fd5b506104dc6004803603602081101561136657600080fd5b50356001600160a01b03166144cc565b34801561138257600080fd5b506106b661451a565b611394336121e0565b61139d57600080fd5b6000546113a8614589565b600154602080830191909152828252608080830180519092018c9052815160409081018c905282516060018b9052825190910189905281514260a090910152339083018190529051526113fa81614520565b6000606082015261140e8187878787614568565b60008281526003602090815260409182902083518155908301516001820155908201516002820180546001600160a01b0319166001600160a01b03909216919091178082556060840151849392909160ff60a01b1916600160a01b83600881111561147557fe5b0217905550608082015180516003830180546001600160a01b0319166001600160a01b0390921691909117815560208083015180516114ba92600487019201906145f4565b50604082015180516114d69160028401916020909101906145f4565b50606082015180516114f29160038401916020909101906145f4565b506080820151805161150e9160048401916020909101906145f4565b5060a0918201516005919091015582015180516009830180546001600160a01b0319166001600160a01b03909216919091178155602080830151805161155a92600a87019201906145f4565b50604082015180516115769160028401916020909101906145f4565b50505060c082015180518051600c840191611596918391602001906145f4565b50602082810151600183015560408301516002830155606083015180516115c392600385019201906145f4565b50505060e082015180516010830180546001600160a01b0319166001600160a01b03909216919091178155602080830151805161160692601187019201906145f4565b50604082015180516116229160028401916020909101906145f4565b5050506101008201516013820180546001600160a01b0319166001600160a01b0390921691909117905561012082015180516116689160148401916020909101906145f4565b50505060008281526004602090815260408083208054600180820180845592865294849020865160159092020190815592850151938301939093558301516002820180546001600160a01b0319166001600160a01b03909216919091178082556060850151859392909160ff60a01b1916600160a01b8360088111156116ea57fe5b0217905550608082015180516003830180546001600160a01b0319166001600160a01b03909216919091178155602080830151805161172f92600487019201906145f4565b506040820151805161174b9160028401916020909101906145f4565b50606082015180516117679160038401916020909101906145f4565b50608082015180516117839160048401916020909101906145f4565b5060a0918201516005919091015582015180516009830180546001600160a01b0319166001600160a01b0390921691909117815560208083015180516117cf92600a87019201906145f4565b50604082015180516117eb9160028401916020909101906145f4565b50505060c082015180518051600c84019161180b918391602001906145f4565b506020828101516001830155604083015160028301556060830151805161183892600385019201906145f4565b50505060e082015180516010830180546001600160a01b0319166001600160a01b03909216919091178155602080830151805161187b92601187019201906145f4565b50604082015180516118979160028401916020909101906145f4565b5050506101008201516013820180546001600160a01b0319166001600160a01b0390921691909117905561012082015180516118dd9160148401916020909101906145f4565b5050600180548101815560008054909101905550506040805183815290517fd29d8a68ca7c8c74be5579719d445aabfe230ed6e6a83aff475a663500eb76099181900360200190a150505050505050505050565b60006001600160a01b03821661194657600080fd5b506001600160a01b03166000908152600560205260409020546301000000900460ff1690565b600081815260036020819052604090912001546001600160a01b031633811461199457600080fd5b61199d336121e0565b6119a657600080fd5b60008281526003602081815260408084206002808201805460ff60a01b19908116600160a11b17825560048652938720958552855460018181018089559789529590972083546015909802019687558483015494870194909455835490860180546001600160a01b0319166001600160a01b0390921691909117808255935494959194919360ff600160a01b9384900416939192911690836008811115611a4957fe5b02179055506003828101805491830180546001600160a01b0319166001600160a01b0390931692909217825560048085018054929392611a9f928601919060026000196001831615610100020190911604614672565b5060028281018054611ac4928481019291600019610100600183161502011604614672565b5060038201816003019080546001816001161561010002031660029004611aec929190614672565b5060048201816004019080546001816001161561010002031660029004611b14929190614672565b506005918201549101556009828101805491830180546001600160a01b0319166001600160a01b03909316929092178255600a8085018054929392611b6f928601919060026000196001831615610100020190911604614672565b5060028281018054611b94928481019291600019610100600183161502011604614672565b505050600c82810180549091830190611bc3908290849060026000196101006001841615020190911604614672565b50600182015481600101556002820154816002015560038201816003019080546001816001161561010002031660029004611bff929190614672565b5050506010828101805491830180546001600160a01b0319166001600160a01b0390931692909217825560118085018054929392611c53928601919060026000196001831615610100020190911604614672565b5060028281018054611c78928481019291600019610100600183161502011604614672565b50505060138281015490820180546001600160a01b0319166001600160a01b0390921691909117905560148083018054611cc8928401919060026000196001831615610100020190911604614672565b50506040805185815290517f25727bef8a186dd95a062151451f2d651551b53124c18208d7653b1217ae31ba9350908190036020019150a15050565b826002600082815260036020526040902060020154600160a01b900460ff166008811115611d2e57fe5b14611d3857600080fd5b6000848152600360205260409020600901546001600160a01b0316338114611d5f57600080fd5b611d6833614027565b611d7157600080fd5b60008581526003602090815260409091206002810180546001600160a01b031916331790558551611daa92600a909201918701906145f4565b5060008581526003602090815260409091208451611dd092600b909201918601906145f4565b5060008581526003602081815260408084206002808201805460ff60a01b19908116600360a01b17825560048652938720958552855460018181018089559789529590972083546015909802019687558483015494870194909455835490860180546001600160a01b0319166001600160a01b0390921691909117808255935494959194919360ff600160a01b9384900416939192911690836008811115611e7457fe5b02179055506003828101805491830180546001600160a01b0319166001600160a01b0390931692909217825560048085018054929392611eca928601919060026000196001831615610100020190911604614672565b5060028281018054611eef928481019291600019610100600183161502011604614672565b5060038201816003019080546001816001161561010002031660029004611f17929190614672565b5060048201816004019080546001816001161561010002031660029004611f3f929190614672565b506005918201549101556009828101805491830180546001600160a01b0319166001600160a01b03909316929092178255600a8085018054929392611f9a928601919060026000196001831615610100020190911604614672565b5060028281018054611fbf928481019291600019610100600183161502011604614672565b505050600c82810180549091830190611fee908290849060026000196101006001841615020190911604614672565b5060018201548160010155600282015481600201556003820181600301908054600181600116156101000203166002900461202a929190614672565b5050506010828101805491830180546001600160a01b0319166001600160a01b039093169290921782556011808501805492939261207e928601919060026000196001831615610100020190911604614672565b50600282810180546120a3928481019291600019610100600183161502011604614672565b50505060138281015490820180546001600160a01b0319166001600160a01b03909216919091179055601480830180546120f3928401919060026000196001831615610100020190911604614672565b50506040805188815290517fa22971300ba7d9ca2113cf57c3238cde86a32cfba0c31a13ad86a23bde3facf29350908190036020019150a15050505050565b60009081526004602052604090205490565b6001600160a01b03811661215757600080fd5b61216081614060565b1561216a57600080fd5b6001600160a01b03166000908152600560205260409020805463ff00000019166301000000179055565b6001600160a01b0381166121a757600080fd5b6121b081614027565b156121ba57600080fd5b6001600160a01b03166000908152600560205260409020805461ff001916610100179055565b60006001600160a01b0382166121f557600080fd5b506001600160a01b031660009081526005602052604090205460ff1690565b60008381526003602052604081205481908190819060609081908190819061223b57600080fd5b60008b815260036020908152604091829020825180840190935260078352661c1c9bd91d58dd60ca1b928201929092528b51908c01207f36a4a183f82db747ab399ca476ab84cc3def6abe3ac63748d03b4584af38d05714156122a8575060008b81526003602052604090205b604080518082019091526007815266686973746f727960c81b6020918201528b51908c01207f5cb4ee416d23b95cd5367c15d6b361ec02394b3d48d629418b0e5e7eda675858141561231f5760008c815260046020526040902080548b90811061230e57fe5b906000526020600020906015020190505b8054600180830154600280850154600386015460048701805460408051602061010099841615999099026000190190921695909504601f810188900488028201880190955284815294956001600160a01b039384169593909216939092600589019260068a019260078b0192918691908301828280156123e05780601f106123b5576101008083540402835291602001916123e0565b820191906000526020600020905b8154815290600101906020018083116123c357829003601f168201915b5050865460408051602060026001851615610100026000190190941693909304601f81018490048402820184019092528181529599508894509250840190508282801561246e5780601f106124435761010080835404028352916020019161246e565b820191906000526020600020905b81548152906001019060200180831161245157829003601f168201915b5050855460408051602060026001851615610100026000190190941693909304601f8101849004840282018401909252818152959850879450925084019050828280156124fc5780601f106124d1576101008083540402835291602001916124fc565b820191906000526020600020905b8154815290600101906020018083116124df57829003601f168201915b5050845460408051602060026001851615610100026000190190941693909304601f81018490048402820184019092528181529597508694509250840190508282801561258a5780601f1061255f5761010080835404028352916020019161258a565b820191906000526020600020905b81548152906001019060200180831161256d57829003601f168201915b5050505050905098509850985098509850985098509850509397509397509397509397565b806006600082815260036020526040902060020154600160a01b900460ff1660088111156125d957fe5b146125e357600080fd5b6000828152600360205260409020600201546001600160a01b031633811461260a57600080fd5b6000838152600360205260409020601001546001600160a01b031633811461263157600080fd5b61263a33614060565b61264357600080fd5b60008481526003602081815260408084206002808201805460ff60a01b19908116600760a01b17825560048652938720958552855460018181018089559789529590972083546015909802019687558483015494870194909455835490860180546001600160a01b0319166001600160a01b0390921691909117808255935494959194919360ff600160a01b93849004169391929116908360088111156126e657fe5b02179055506003828101805491830180546001600160a01b0319166001600160a01b039093169290921782556004808501805492939261273c928601919060026000196001831615610100020190911604614672565b5060028281018054612761928481019291600019610100600183161502011604614672565b5060038201816003019080546001816001161561010002031660029004612789929190614672565b50600482018160040190805460018160011615610100020316600290046127b1929190614672565b506005918201549101556009828101805491830180546001600160a01b0319166001600160a01b03909316929092178255600a808501805492939261280c928601919060026000196001831615610100020190911604614672565b5060028281018054612831928481019291600019610100600183161502011604614672565b505050600c82810180549091830190612860908290849060026000196101006001841615020190911604614672565b5060018201548160010155600282015481600201556003820181600301908054600181600116156101000203166002900461289c929190614672565b5050506010828101805491830180546001600160a01b0319166001600160a01b03909316929092178255601180850180549293926128f0928601919060026000196001831615610100020190911604614672565b5060028281018054612915928481019291600019610100600183161502011604614672565b50505060138281015490820180546001600160a01b0319166001600160a01b0390921691909117905560148083018054612965928401919060026000196001831615610100020190911604614672565b50506040805187815290517f9a96442e96ac96ba57e48273f290bf3bb9c6b0b2c86843cc4bf2353119918fdf9350908190036020019150a150505050565b6000838152600360205260408120546060908290819083908290819083906129ca57600080fd5b60008b815260036020908152604091829020825180840190935260078352661c1c9bd91d58dd60ca1b928201929092528b51908c01207f36a4a183f82db747ab399ca476ab84cc3def6abe3ac63748d03b4584af38d0571415612a37575060008b81526003602052604090205b604080518082019091526007815266686973746f727960c81b6020918201528b51908c01207f5cb4ee416d23b95cd5367c15d6b361ec02394b3d48d629418b0e5e7eda6758581415612aae5760008c815260046020526040902080548b908110612a9d57fe5b906000526020600020906015020190505b6008810154600d820154600e8301546002808501546009860154600c870180546040805160206101006001851615026000190190931696909604601f810183900483028701830190915280865291969594600f8a0194600160a01b900460ff16936001600160a01b031692600a8b0192899190830182828015612b725780601f10612b4757610100808354040283529160200191612b72565b820191906000526020600020905b815481529060010190602001808311612b5557829003601f168201915b5050875460408051602060026001851615610100026000190190941693909304601f8101849004840282018401909252818152959c5089945092508401905082828015612c005780601f10612bd557610100808354040283529160200191612c00565b820191906000526020600020905b815481529060010190602001808311612be357829003601f168201915b5050845460408051602060026001851615610100026000190190941693909304601f81018490048402820184019092528181529599508694509250840190508282801561258a5780601f1061255f5761010080835404028352916020019161258a565b806003600082815260036020526040902060020154600160a01b900460ff166008811115612c8d57fe5b14612c9757600080fd5b612ca033611931565b612ca957600080fd5b346706f05b59d3b2000014612d05576040805162461bcd60e51b815260206004820152601760248201527f4d7573742073656e642065786163746c79203120455448000000000000000000604482015290519081900360640190fd5b60008281526003602081815260408084206013810180546001600160a01b031990811633179091556002808301805460ff60a01b19908116600160a21b1782556004875294882096865286546001818101808a55988a529690982084546015909902019788558584015495880195909555845490870180549092166001600160a01b0390911617808255935494959194919360ff600160a01b9384900416939192911690836008811115612db557fe5b02179055506003828101805491830180546001600160a01b0319166001600160a01b0390931692909217825560048085018054929392612e0b928601919060026000196001831615610100020190911604614672565b5060028281018054612e30928481019291600019610100600183161502011604614672565b5060038201816003019080546001816001161561010002031660029004612e58929190614672565b5060048201816004019080546001816001161561010002031660029004612e80929190614672565b506005918201549101556009828101805491830180546001600160a01b0319166001600160a01b03909316929092178255600a8085018054929392612edb928601919060026000196001831615610100020190911604614672565b5060028281018054612f00928481019291600019610100600183161502011604614672565b505050600c82810180549091830190612f2f908290849060026000196101006001841615020190911604614672565b50600182015481600101556002820154816002015560038201816003019080546001816001161561010002031660029004612f6b929190614672565b5050506010828101805491830180546001600160a01b0319166001600160a01b0390931692909217825560118085018054929392612fbf928601919060026000196001831615610100020190911604614672565b5060028281018054612fe4928481019291600019610100600183161502011604614672565b50505060138281015490820180546001600160a01b0319166001600160a01b0390921691909117905560148083018054613034928401919060026000196001831615610100020190911604614672565b50506040805185815290517ffd054e59d299873fab61a3c67d86d3a139b75dcd5cd82894d8983fc5e2669c829350908190036020019150a15050565b806007600082815260036020526040902060020154600160a01b900460ff16600881111561309a57fe5b146130a457600080fd5b6000828152600360205260409020601301546001600160a01b03163381146130cb57600080fd5b6130d433611931565b6130dd57600080fd5b6000838152600360208181526040808420600280820180546001600160a01b0319908116331760ff60a01b19908116600160a31b1783556004875294882096865286546001818101808a55988a529690982084546015909902019788558584015495880195909555805491870180549095166001600160a01b0390921691909117808555905494959194919360ff600160a01b938490041693909291169083600881111561318757fe5b02179055506003828101805491830180546001600160a01b0319166001600160a01b03909316929092178255600480850180549293926131dd928601919060026000196001831615610100020190911604614672565b5060028281018054613202928481019291600019610100600183161502011604614672565b506003820181600301908054600181600116156101000203166002900461322a929190614672565b5060048201816004019080546001816001161561010002031660029004613252929190614672565b506005918201549101556009828101805491830180546001600160a01b0319166001600160a01b03909316929092178255600a80850180549293926132ad928601919060026000196001831615610100020190911604614672565b50600282810180546132d2928481019291600019610100600183161502011604614672565b505050600c82810180549091830190613301908290849060026000196101006001841615020190911604614672565b5060018201548160010155600282015481600201556003820181600301908054600181600116156101000203166002900461333d929190614672565b5050506010828101805491830180546001600160a01b0319166001600160a01b0390931692909217825560118085018054929392613391928601919060026000196001831615610100020190911604614672565b50600282810180546133b6928481019291600019610100600183161502011604614672565b50505060138281015490820180546001600160a01b0319166001600160a01b0390921691909117905560148083018054613406928401919060026000196001831615610100020190911604614672565b50506040805186815290517f8a746d5b91a9a334d1abbeee7d031aac6d5c59ea6e982ac06aef4346cce5749e9350908190036020019150a1505050565b60008281526004602052604081208054600019810190811061346157fe5b90600052602060002090601502019050818160140190805190602001906134899291906145f4565b50505050565b6001600160a01b0381166134a257600080fd5b6134ab816121e0565b156134b557600080fd5b6001600160a01b03166000908152600560205260409020805460ff19166001179055565b826005600082815260036020526040902060020154600160a01b900460ff16600881111561350357fe5b1461350d57600080fd5b61351633614060565b61351f57600080fd5b6000848152600360209081526040909120600281018054336001600160a01b031991821681179092556010830180549091169091179055845161356a926011909201918601906145f4565b5060008481526003602090815260409091208351613590926012909201918501906145f4565b5060008481526003602081815260408084206002808201805460ff60a01b19908116600360a11b17825560048652938720958552855460018181018089559789529590972083546015909802019687558483015494870194909455835490860180546001600160a01b0319166001600160a01b0390921691909117808255935494959194919360ff600160a01b938490041693919291169083600881111561363457fe5b02179055506003828101805491830180546001600160a01b0319166001600160a01b039093169290921782556004808501805492939261368a928601919060026000196001831615610100020190911604614672565b50600282810180546136af928481019291600019610100600183161502011604614672565b50600382018160030190805460018160011615610100020316600290046136d7929190614672565b50600482018160040190805460018160011615610100020316600290046136ff929190614672565b506005918201549101556009828101805491830180546001600160a01b0319166001600160a01b03909316929092178255600a808501805492939261375a928601919060026000196001831615610100020190911604614672565b506002828101805461377f928481019291600019610100600183161502011604614672565b505050600c828101805490918301906137ae908290849060026000196101006001841615020190911604614672565b506001820154816001015560028201548160020155600382018160030190805460018160011615610100020316600290046137ea929190614672565b5050506010828101805491830180546001600160a01b0319166001600160a01b039093169290921782556011808501805492939261383e928601919060026000196001831615610100020190911604614672565b5060028281018054613863928481019291600019610100600183161502011604614672565b50505060138281015490820180546001600160a01b0319166001600160a01b03909216919091179055601480830180546138b3928401919060026000196001831615610100020190911604614672565b50506040805187815290517fb6589947d486bf61c31a4e6d2e81d4d2c93e7832fdda27f2492009b4755c29ed9350908190036020019150a150505050565b60008381526003602052604081205460609190829081908390829061391557600080fd5b600089815260036020908152604091829020825180840190935260078352661c1c9bd91d58dd60ca1b928201929092528951908a01207f36a4a183f82db747ab399ca476ab84cc3def6abe3ac63748d03b4584af38d0571415613982575060008981526003602052604090205b604080518082019091526007815266686973746f727960c81b6020918201528951908a01207f5cb4ee416d23b95cd5367c15d6b361ec02394b3d48d629418b0e5e7eda67585814156139f95760008a81526004602052604090208054899081106139e857fe5b906000526020600020906015020190505b60108101546013820154600b8301805460408051602060026101006001861615026000190190941693909304601f810184900484028201840190925281815292946001600160a01b03908116946011880194601289019492909116926014890192889190830182828015613aae5780601f10613a8357610100808354040283529160200191613aae565b820191906000526020600020905b815481529060010190602001808311613a9157829003601f168201915b5050875460408051602060026001851615610100026000190190941693909304601f8101849004840282018401909252818152959b5089945092508401905082828015613b3c5780601f10613b1157610100808354040283529160200191613b3c565b820191906000526020600020905b815481529060010190602001808311613b1f57829003601f168201915b5050865460408051602060026001851615610100026000190190941693909304601f810184900484028201840190925281815295995088945092508401905082828015613bca5780601f10613b9f57610100808354040283529160200191613bca565b820191906000526020600020905b815481529060010190602001808311613bad57829003601f168201915b5050845460408051602060026001851615610100026000190190941693909304601f810184900484028201840190925281815295985086945092508401905082828015613c585780601f10613c2d57610100808354040283529160200191613c58565b820191906000526020600020905b815481529060010190602001808311613c3b57829003601f168201915b505050505090509650965096509650965096505093975093979195509350565b8060008082815260036020526040902060020154600160a01b900460ff166008811115613ca157fe5b14613cab57600080fd5b613cb433614027565b613cbd57600080fd5b6000828152600360208181526040808420600981018054336001600160a01b03199182161790915560028083018054600160a01b60ff60a01b19918216811783556004885295892097875287546001818101808b55998b529790992085546015909a02019889558685015496890196909655805491880180546001600160a01b03909316929093169190911780835590549596929592949284900460ff169391921690836008811115613d6c57fe5b02179055506003828101805491830180546001600160a01b0319166001600160a01b0390931692909217825560048085018054929392613dc2928601919060026000196001831615610100020190911604614672565b5060028281018054613de7928481019291600019610100600183161502011604614672565b5060038201816003019080546001816001161561010002031660029004613e0f929190614672565b5060048201816004019080546001816001161561010002031660029004613e37929190614672565b506005918201549101556009828101805491830180546001600160a01b0319166001600160a01b03909316929092178255600a8085018054929392613e92928601919060026000196001831615610100020190911604614672565b5060028281018054613eb7928481019291600019610100600183161502011604614672565b505050600c82810180549091830190613ee6908290849060026000196101006001841615020190911604614672565b50600182015481600101556002820154816002015560038201816003019080546001816001161561010002031660029004613f22929190614672565b5050506010828101805491830180546001600160a01b0319166001600160a01b0390931692909217825560118085018054929392613f76928601919060026000196001831615610100020190911604614672565b5060028281018054613f9b928481019291600019610100600183161502011604614672565b50505060138281015490820180546001600160a01b0319166001600160a01b0390921691909117905560148083018054613feb928401919060026000196001831615610100020190911604614672565b50506040805185815290517f112c8adc962c1de46b0ae9499cd428dc90feb4c13a4df0c69d7e5e27ab34ae879350908190036020019150a15050565b60006001600160a01b03821661403c57600080fd5b506001600160a01b0316600090815260056020526040902054610100900460ff1690565b60006001600160a01b03821661407557600080fd5b506001600160a01b031660009081526005602052604090205462010000900460ff1690565b600090815260036020526040902060020154600160a01b900460ff1690565b600080546000199081018252600460205260409091208054839281019081106140de57fe5b906000526020600020906015020160140190805190602001906141029291906145f4565b5050565b6000818152600360205260409020600201546001600160a01b031633811461412d57600080fd5b6000828152600360205260409020600901546001600160a01b031633811461415457600080fd5b61415d33614027565b61416657600080fd5b60008381526003602081815260408084206002808201805460ff60a01b19908116600560a01b17825560048652938720958552855460018181018089559789529590972083546015909802019687558483015494870194909455835490860180546001600160a01b0319166001600160a01b0390921691909117808255935494959194919360ff600160a01b938490041693919291169083600881111561420957fe5b02179055506003828101805491830180546001600160a01b0319166001600160a01b039093169290921782556004808501805492939261425f928601919060026000196001831615610100020190911604614672565b5060028281018054614284928481019291600019610100600183161502011604614672565b50600382018160030190805460018160011615610100020316600290046142ac929190614672565b50600482018160040190805460018160011615610100020316600290046142d4929190614672565b506005918201549101556009828101805491830180546001600160a01b0319166001600160a01b03909316929092178255600a808501805492939261432f928601919060026000196001831615610100020190911604614672565b5060028281018054614354928481019291600019610100600183161502011604614672565b505050600c82810180549091830190614383908290849060026000196101006001841615020190911604614672565b506001820154816001015560028201548160020155600382018160030190805460018160011615610100020316600290046143bf929190614672565b5050506010828101805491830180546001600160a01b0319166001600160a01b0390931692909217825560118085018054929392614413928601919060026000196001831615610100020190911604614672565b5060028281018054614438928481019291600019610100600183161502011604614672565b50505060138281015490820180546001600160a01b0319166001600160a01b0390921691909117905560148083018054614488928401919060026000196001831615610100020190911604614672565b50506040805186815290517ff2452d569e5bc407d222a6bcad7d4bb8bac5fae64ce52fa183bd77e34e0cc1479350908190036020019150a1505050565b6000545b90565b6001600160a01b0381166144df57600080fd5b6144e881614060565b156144f257600080fd5b6001600160a01b03166000908152600560205260409020805462ff0000191662010000179055565b60005481565b60a0810180516000908190528151606060209182018190529251604090810184905260e085018051849052805190920184905290510182905261010083015261012090910152565b60c09094018051939093528251602001919091528151604001525160600152565b604080516101408101825260008082526020820181905291810182905290606082019081526020016145b96146e7565b81526020016145c6614726565b81526020016145d3614750565b81526020016145e0614726565b815260006020820152606060409091015290565b828054600181600116156101000203166002900490600052602060002090601f016020900481019282601f1061463557805160ff1916838001178555614662565b82800160010185558215614662579182015b82811115614662578251825591602001919060010190614647565b5061466e929150614778565b5090565b828054600181600116156101000203166002900490600052602060002090601f016020900481019282601f106146ab5780548555614662565b8280016001018555821561466257600052602060002091601f016020900482015b828111156146625782548255916001019190600101906146cc565b6040518060c0016040528060006001600160a01b0316815260200160608152602001606081526020016060815260200160608152602001600081525090565b604051806060016040528060006001600160a01b0316815260200160608152602001606081525090565b6040518060800160405280606081526020016000815260200160008152602001606081525090565b6144c991905b8082111561466e576000815560010161477e56fea265627a7a723158200d7821a7e9cc7e07eeed701dde0acccbb2b05a09b8c42248f24fc3a8bc864d3764736f6c63430005100032",
  "source": "\r\npragma solidity >=0.4.21 <0.9.0;\r\n\r\nimport \"./Structure.sol\";\r\n\r\ncontract SupplyChain {\r\n    event ManufacturerAdded(address indexed _account);\r\n\r\n    //product code\r\n    uint256 public uid;\r\n    uint256 sku;\r\n\r\n    address owner;\r\n\r\n    mapping(uint256 => Structure.Product) products;\r\n    mapping(uint256 => Structure.ProductHistory) productHistory;\r\n    mapping(address => Structure.Roles) roles;\r\n\r\n    function hasManufacturerRole(address _account) public view returns (bool) {\r\n        require(_account != address(0));\r\n        return roles[_account].Manufacturer;\r\n    }\r\n\r\n    function addManufacturerRole(address _account) public {\r\n        require(_account != address(0));\r\n        require(!hasManufacturerRole(_account));\r\n\r\n        roles[_account].Manufacturer = true;\r\n    }\r\n\r\n    function hasThirdPartyRole(address _account) public view returns (bool) {\r\n        require(_account != address(0));\r\n        return roles[_account].ThirdParty;\r\n    }\r\n\r\n    function addThirdPartyRole(address _account) public {\r\n        require(_account != address(0));\r\n        require(!hasThirdPartyRole(_account));\r\n\r\n        roles[_account].ThirdParty = true;\r\n    }\r\n\r\n    function hasDeliveryHubRole(address _account) public view returns (bool) {\r\n        require(_account != address(0));\r\n        return roles[_account].DeliveryHub;\r\n    }\r\n\r\n    function addDeliveryHubRole(address _account) public {\r\n        require(_account != address(0));\r\n        require(!hasDeliveryHubRole(_account));\r\n\r\n        roles[_account].DeliveryHub = true;\r\n    }\r\n\r\n    function hasCustomerRole(address _account) public view returns (bool) {\r\n        require(_account != address(0));\r\n        return roles[_account].Customer;\r\n    }\r\n\r\n    function addCustomerRole(address _account) public {\r\n        require(_account != address(0));\r\n        require(!hasDeliveryHubRole(_account));\r\n\r\n        roles[_account].Customer = true;\r\n    }\r\n\r\n    constructor() public payable {\r\n        owner = msg.sender;\r\n        sku = 1;\r\n        uid = 1;\r\n    }\r\n\r\n    event Manufactured(uint256 uid);\r\n    event PurchasedByThirdParty(uint256 uid);\r\n    event ShippedByManufacturer(uint256 uid);\r\n    event ReceivedByThirdParty(uint256 uid);\r\n    event PurchasedByCustomer(uint256 uid);\r\n    event ShippedByThirdParty(uint256 uid);\r\n    event ReceivedByDeliveryHub(uint256 uid);\r\n    event ShippedByDeliveryHub(uint256 uid);\r\n    event ReceivedByCustomer(uint256 uid);\r\n\r\n    modifier verifyAddress(address add) {\r\n        require(msg.sender == add);\r\n        _;\r\n    }\r\n\r\n    modifier manufactured(uint256 _uid) {\r\n        require(products[_uid].productState == Structure.State.Manufactured);\r\n        _;\r\n    }\r\n\r\n    modifier shippedByManufacturer(uint256 _uid) {\r\n        require(\r\n            products[_uid].productState == Structure.State.ShippedByManufacturer\r\n        );\r\n        _;\r\n    }\r\n\r\n    modifier receivedByThirdParty(uint256 _uid) {\r\n        require(\r\n            products[_uid].productState == Structure.State.ReceivedByThirdParty\r\n        );\r\n        _;\r\n    }\r\n\r\n    modifier purchasedByCustomer(uint256 _uid) {\r\n        require(\r\n            products[_uid].productState == Structure.State.PurchasedByCustomer\r\n        );\r\n        _;\r\n    }\r\n\r\n    modifier shippedByThirdParty(uint256 _uid) {\r\n        require(\r\n            products[_uid].productState == Structure.State.ShippedByThirdParty\r\n        );\r\n        _;\r\n    }\r\n\r\n    modifier receivedByDeliveryHub(uint256 _uid) {\r\n        require(\r\n            products[_uid].productState == Structure.State.ReceivedByDeliveryHub\r\n        );\r\n        _;\r\n    }\r\n\r\n    modifier shippedByDeliveryHub(uint256 _uid) {\r\n        require(\r\n            products[_uid].productState == Structure.State.ShippedByDeliveryHub\r\n        );\r\n        _;\r\n    }\r\n\r\n    modifier receivedByCustomer(uint256 _uid) {\r\n        require(\r\n            products[_uid].productState == Structure.State.ReceivedByCustomer\r\n        );\r\n        _;\r\n    }\r\n\r\n    function manufactureEmptyInitialize(Structure.Product memory product)\r\n        internal\r\n        pure\r\n    {\r\n        address thirdParty;\r\n        string memory transaction;\r\n        string memory thirdPartyLongitude;\r\n        string memory thirdPartyLatitude;\r\n\r\n        address deliveryHub;\r\n        string memory deliveryHubLongitude;\r\n        string memory deliveryHubLatitude;\r\n        address customer;\r\n\r\n        product.thirdparty.thirdParty = thirdParty;\r\n        product.thirdparty.thirdPartyLongitude = thirdPartyLongitude;\r\n        product.thirdparty.thirdPartyLatitude = thirdPartyLatitude;\r\n\r\n        product.deliveryhub.deliveryHub = deliveryHub;\r\n        product.deliveryhub.deliveryHubLongitude = deliveryHubLongitude;\r\n        product.deliveryhub.deliveryHubLatitude = deliveryHubLatitude;\r\n\r\n        product.customer = customer;\r\n        product.transaction = transaction;\r\n    }\r\n\r\n    function manufactureProductInitialize(\r\n        Structure.Product memory product,\r\n        string memory productName,\r\n        uint256 productCode,\r\n        uint256 productPrice,\r\n        string memory productCategory\r\n    ) internal pure {\r\n        product.productdet.productName = productName;\r\n        product.productdet.productCode = productCode;\r\n        product.productdet.productPrice = productPrice;\r\n        product.productdet.productCategory = productCategory;\r\n    }\r\n\r\n    ///@dev STEP 1 : Manufactured a product.\r\n    function manufactureProduct(\r\n        string memory manufacturerName,\r\n        string memory manufacturerDetails,\r\n        string memory manufacturerLongitude,\r\n        string memory manufacturerLatitude,\r\n        string memory productName,\r\n        uint256 productCode,\r\n        uint256 productPrice,\r\n        string memory productCategory\r\n    ) public {\r\n        require(hasManufacturerRole(msg.sender));\r\n        uint256 _uid = uid;\r\n        Structure.Product memory product;\r\n        product.sku = sku;\r\n        product.uid = _uid;\r\n        product.manufacturer.manufacturerName = manufacturerName;\r\n        product.manufacturer.manufacturerDetails = manufacturerDetails;\r\n        product.manufacturer.manufacturerLongitude = manufacturerLongitude;\r\n        product.manufacturer.manufacturerLatitude = manufacturerLatitude;\r\n        product.manufacturer.manufacturedDate = block.timestamp;\r\n\r\n        product.owner = msg.sender;\r\n        product.manufacturer.manufacturer = msg.sender;\r\n\r\n        manufactureEmptyInitialize(product);\r\n\r\n        product.productState = Structure.State.Manufactured;\r\n\r\n        manufactureProductInitialize(\r\n            product,\r\n            productName,\r\n            productCode,\r\n            productPrice,\r\n            productCategory\r\n        );\r\n\r\n        products[_uid] = product;\r\n\r\n        productHistory[_uid].history.push(product);\r\n\r\n        sku++;\r\n        uid = uid + 1;\r\n\r\n        emit Manufactured(_uid);\r\n    }\r\n\r\n    ///@dev STEP 2 : Purchase of manufactured product by Third Party.\r\n    function purchaseByThirdParty(uint256 _uid) public manufactured(_uid) {\r\n        require(hasThirdPartyRole(msg.sender));\r\n        products[_uid].thirdparty.thirdParty = msg.sender;\r\n        products[_uid].productState = Structure.State.PurchasedByThirdParty;\r\n        productHistory[_uid].history.push(products[_uid]);\r\n\r\n        emit PurchasedByThirdParty(_uid);\r\n    }\r\n\r\n    ///@dev STEP 3 : Shipping of purchased product to Third Party.\r\n    function shipToThirdParty(uint256 _uid)\r\n        public\r\n        verifyAddress(products[_uid].manufacturer.manufacturer)\r\n    {\r\n        require(hasManufacturerRole(msg.sender));\r\n        products[_uid].productState = Structure.State.ShippedByManufacturer;\r\n        productHistory[_uid].history.push(products[_uid]);\r\n\r\n        emit ShippedByManufacturer(_uid);\r\n    }\r\n\r\n    ///@dev STEP 4 : Received the purchased product shipped by Manufacturer.\r\n    function receiveByThirdParty(\r\n        uint256 _uid,\r\n        string memory thirdPartyLongitude,\r\n        string memory thirdPartyLatitude\r\n    )\r\n        public\r\n        shippedByManufacturer(_uid)\r\n        verifyAddress(products[_uid].thirdparty.thirdParty)\r\n    {\r\n        require(hasThirdPartyRole(msg.sender));\r\n        products[_uid].owner = msg.sender;\r\n        products[_uid].thirdparty.thirdPartyLongitude = thirdPartyLongitude;\r\n        products[_uid].thirdparty.thirdPartyLatitude = thirdPartyLatitude;\r\n        products[_uid].productState = Structure.State.ReceivedByThirdParty;\r\n        productHistory[_uid].history.push(products[_uid]);\r\n\r\n        emit ReceivedByThirdParty(_uid);\r\n    }\r\n\r\n    ///@dev STEP 5 : Purchase of a product at third party by Customer.\r\n    function purchaseByCustomer(uint256 _uid)\r\n        public\r\n        payable\r\n        receivedByThirdParty(_uid)\r\n    {\r\n        require(hasCustomerRole(msg.sender));\r\n        require(msg.value == 0.5 ether, \"Must send exactly 1 ETH\");\r\n        products[_uid].customer = msg.sender;\r\n        products[_uid].productState = Structure.State.PurchasedByCustomer;\r\n        productHistory[_uid].history.push(products[_uid]);\r\n\r\n        emit PurchasedByCustomer(_uid);\r\n    }\r\n\r\n    ///@dev STEP 7 : Shipping of product by third party purchased by customer.\r\n    function shipByThirdParty(uint256 _uid)\r\n        public\r\n        verifyAddress(products[_uid].owner)\r\n        verifyAddress(products[_uid].thirdparty.thirdParty)\r\n    {\r\n        require(hasThirdPartyRole(msg.sender));\r\n        products[_uid].productState = Structure.State.ShippedByThirdParty;\r\n        productHistory[_uid].history.push(products[_uid]);\r\n\r\n        emit ShippedByThirdParty(_uid);\r\n    }\r\n\r\n    ///@dev STEP 8 : Receiveing of product by delivery hub purchased by customer.\r\n    function receiveByDeliveryHub(\r\n        uint256 _uid,\r\n        string memory deliveryHubLongitude,\r\n        string memory deliveryHubLatitude\r\n    ) public shippedByThirdParty(_uid) {\r\n        require(hasDeliveryHubRole(msg.sender));\r\n        products[_uid].owner = msg.sender;\r\n        products[_uid].deliveryhub.deliveryHub = msg.sender;\r\n        products[_uid].deliveryhub.deliveryHubLongitude = deliveryHubLongitude;\r\n        products[_uid].deliveryhub.deliveryHubLatitude = deliveryHubLatitude;\r\n        products[_uid].productState = Structure.State.ReceivedByDeliveryHub;\r\n        productHistory[_uid].history.push(products[_uid]);\r\n\r\n        emit ReceivedByDeliveryHub(_uid);\r\n    }\r\n\r\n    ///@dev STEP 9 : Shipping of product by delivery hub purchased by customer.\r\n    function shipByDeliveryHub(uint256 _uid)\r\n        public\r\n        receivedByDeliveryHub(_uid)\r\n        verifyAddress(products[_uid].owner)\r\n        verifyAddress(products[_uid].deliveryhub.deliveryHub)\r\n    {\r\n        require(hasDeliveryHubRole(msg.sender));\r\n        products[_uid].productState = Structure.State.ShippedByDeliveryHub;\r\n        productHistory[_uid].history.push(products[_uid]);\r\n\r\n        emit ShippedByDeliveryHub(_uid);\r\n    }\r\n\r\n    ///@dev STEP 10 : Shipping of product by delivery hub purchased by customer.\r\n    function receiveByCustomer(uint256 _uid)\r\n        public\r\n        shippedByDeliveryHub(_uid)\r\n        verifyAddress(products[_uid].customer)\r\n    {\r\n        require(hasCustomerRole(msg.sender));\r\n        products[_uid].owner = msg.sender;\r\n        products[_uid].productState = Structure.State.ReceivedByCustomer;\r\n        productHistory[_uid].history.push(products[_uid]);\r\n\r\n        emit ReceivedByCustomer(_uid);\r\n    }\r\n\r\n    ///@dev Fetch product\r\n    function fetchProductPart1(\r\n        uint256 _uid,\r\n        string memory _type,\r\n        uint256 i\r\n    )\r\n        public\r\n        view\r\n        returns (\r\n            uint256,\r\n            uint256,\r\n            address,\r\n            address,\r\n            string memory,\r\n            string memory,\r\n            string memory,\r\n            string memory\r\n        )\r\n    {\r\n        require(products[_uid].uid != 0);\r\n        Structure.Product storage product = products[_uid];\r\n        if (keccak256(bytes(_type)) == keccak256(bytes(\"product\"))) {\r\n            product = products[_uid];\r\n        }\r\n        if (keccak256(bytes(_type)) == keccak256(bytes(\"history\"))) {\r\n            product = productHistory[_uid].history[i];\r\n        }\r\n        return (\r\n            product.uid,\r\n            product.sku,\r\n            product.owner,\r\n            product.manufacturer.manufacturer,\r\n            product.manufacturer.manufacturerName,\r\n            product.manufacturer.manufacturerDetails,\r\n            product.manufacturer.manufacturerLongitude,\r\n            product.manufacturer.manufacturerLatitude\r\n        );\r\n    }\r\n\r\n    ///@dev Fetch product\r\n    function fetchProductPart2(\r\n        uint256 _uid,\r\n        string memory _type,\r\n        uint256 i\r\n    )\r\n        public\r\n        view\r\n        returns (\r\n            uint256,\r\n            string memory,\r\n            uint256,\r\n            uint256,\r\n            string memory,\r\n            Structure.State,\r\n            address,\r\n            string memory\r\n        )\r\n    {\r\n        require(products[_uid].uid != 0);\r\n        Structure.Product storage product = products[_uid];\r\n        if (keccak256(bytes(_type)) == keccak256(bytes(\"product\"))) {\r\n            product = products[_uid];\r\n        }\r\n        if (keccak256(bytes(_type)) == keccak256(bytes(\"history\"))) {\r\n            product = productHistory[_uid].history[i];\r\n        }\r\n        return (\r\n            product.manufacturer.manufacturedDate,\r\n            product.productdet.productName,\r\n            product.productdet.productCode,\r\n            product.productdet.productPrice,\r\n            product.productdet.productCategory,\r\n            product.productState,\r\n            product.thirdparty.thirdParty,\r\n            product.thirdparty.thirdPartyLongitude\r\n        );\r\n    }\r\n\r\n    function fetchProductPart3(\r\n        uint256 _uid,\r\n        string memory _type,\r\n        uint256 i\r\n    )\r\n        public\r\n        view\r\n        returns (\r\n            string memory,\r\n            address,\r\n            string memory,\r\n            string memory,\r\n            address,\r\n            string memory\r\n        )\r\n    {\r\n        require(products[_uid].uid != 0);\r\n        Structure.Product storage product = products[_uid];\r\n        if (keccak256(bytes(_type)) == keccak256(bytes(\"product\"))) {\r\n            product = products[_uid];\r\n        }\r\n        if (keccak256(bytes(_type)) == keccak256(bytes(\"history\"))) {\r\n            product = productHistory[_uid].history[i];\r\n        }\r\n        return (\r\n            product.thirdparty.thirdPartyLatitude,\r\n            product.deliveryhub.deliveryHub,\r\n            product.deliveryhub.deliveryHubLongitude,\r\n            product.deliveryhub.deliveryHubLatitude,\r\n            product.customer,\r\n            product.transaction\r\n        );\r\n    }\r\n\r\n    function fetchProductCount() public view returns (uint256) {\r\n        return uid;\r\n    }\r\n\r\n    function fetchProductHistoryLength(uint256 _uid)\r\n        public\r\n        view\r\n        returns (uint256)\r\n    {\r\n        return productHistory[_uid].history.length;\r\n    }\r\n\r\n    function fetchProductState(uint256 _uid)\r\n        public\r\n        view\r\n        returns (Structure.State)\r\n    {\r\n        return products[_uid].productState;\r\n    }\r\n\r\n    function setTransactionHashOnManufacture(string memory tran) public {\r\n        productHistory[uid - 1].history[\r\n            productHistory[uid - 1].history.length - 1\r\n        ]\r\n            .transaction = tran;\r\n    }\r\n\r\n    function setTransactionHash(uint256 _uid, string memory tran) public {\r\n        Structure.Product storage p =\r\n            productHistory[_uid].history[\r\n                productHistory[_uid].history.length - 1\r\n            ];\r\n        p.transaction = tran;\r\n    }\r\n}",
  "sourcePath": "C:\\Users\\user\\Desktop\\eth-supplychain-dapp\\contracts\\SupplyChain.sol",
  "compiler": {
    "name": "solc",
    "version": "0.5.16+commit.9c3226ce.Emscripten.clang"
  },
  "schemaVersion": "3.4.16",
  "updatedAt": "2025-04-11T19:35:20.404Z",
  "devdoc": {
    "methods": {
      "fetchProductPart1(uint256,string,uint256)": {
        "details": "Fetch product"
      },
      "fetchProductPart2(uint256,string,uint256)": {
        "details": "Fetch product"
      },
      "manufactureProduct(string,string,string,string,string,uint256,uint256,string)": {
        "details": "STEP 1 : Manufactured a product."
      },
      "purchaseByCustomer(uint256)": {
        "details": "STEP 5 : Purchase of a product at third party by Customer."
      },
      "purchaseByThirdParty(uint256)": {
        "details": "STEP 2 : Purchase of manufactured product by Third Party."
      },
      "receiveByCustomer(uint256)": {
        "details": "STEP 10 : Shipping of product by delivery hub purchased by customer."
      },
      "receiveByDeliveryHub(uint256,string,string)": {
        "details": "STEP 8 : Receiveing of product by delivery hub purchased by customer."
      },
      "receiveByThirdParty(uint256,string,string)": {
        "details": "STEP 4 : Received the purchased product shipped by Manufacturer."
      },
      "shipByDeliveryHub(uint256)": {
        "details": "STEP 9 : Shipping of product by delivery hub purchased by customer."
      },
      "shipByThirdParty(uint256)": {
        "details": "STEP 7 : Shipping of product by third party purchased by customer."
      },
      "shipToThirdParty(uint256)": {
        "details": "STEP 3 : Shipping of purchased product to Third Party."
      }
    }
  },
  "userdoc": {
    "methods": {}
  }
}